{
  "_format": "hh-sol-artifact-1",
  "contractName": "HelloListToBid",
  "sourceName": "contracts/HelloListToBid.sol",
  "abi": [
    {
      "inputs": [
        {
          "internalType": "string",
          "name": "newMessage",
          "type": "string"
        }
      ],
      "stateMutability": "nonpayable",
      "type": "constructor"
    },
    {
      "anonymous": false,
      "inputs": [
        {
          "indexed": true,
          "internalType": "uint256",
          "name": "listingId",
          "type": "uint256"
        },
        {
          "indexed": true,
          "internalType": "address",
          "name": "bidder",
          "type": "address"
        },
        {
          "indexed": false,
          "internalType": "uint256",
          "name": "amount",
          "type": "uint256"
        }
      ],
      "name": "BidPlaced",
      "type": "event"
    },
    {
      "anonymous": false,
      "inputs": [
        {
          "indexed": true,
          "internalType": "uint256",
          "name": "listingId",
          "type": "uint256"
        },
        {
          "indexed": true,
          "internalType": "address",
          "name": "seller",
          "type": "address"
        },
        {
          "indexed": true,
          "internalType": "address",
          "name": "buyer",
          "type": "address"
        }
      ],
      "name": "FinalJudgment",
      "type": "event"
    },
    {
      "inputs": [
        {
          "internalType": "string",
          "name": "title",
          "type": "string"
        }
      ],
      "name": "createListing",
      "outputs": [],
      "stateMutability": "nonpayable",
      "type": "function"
    },
    {
      "inputs": [
        {
          "internalType": "uint256",
          "name": "listingId",
          "type": "uint256"
        }
      ],
      "name": "finalizeListing",
      "outputs": [],
      "stateMutability": "nonpayable",
      "type": "function"
    },
    {
      "inputs": [
        {
          "internalType": "uint256",
          "name": "",
          "type": "uint256"
        }
      ],
      "name": "listings",
      "outputs": [
        {
          "internalType": "uint256",
          "name": "id",
          "type": "uint256"
        },
        {
          "internalType": "address",
          "name": "seller",
          "type": "address"
        },
        {
          "internalType": "string",
          "name": "title",
          "type": "string"
        },
        {
          "internalType": "uint256",
          "name": "topBid",
          "type": "uint256"
        },
        {
          "internalType": "address",
          "name": "topBidder",
          "type": "address"
        },
        {
          "internalType": "bool",
          "name": "fulfilled",
          "type": "bool"
        }
      ],
      "stateMutability": "view",
      "type": "function"
    },
    {
      "inputs": [],
      "name": "message",
      "outputs": [
        {
          "internalType": "string",
          "name": "",
          "type": "string"
        }
      ],
      "stateMutability": "view",
      "type": "function"
    },
    {
      "inputs": [],
      "name": "nextListingId",
      "outputs": [
        {
          "internalType": "uint256",
          "name": "",
          "type": "uint256"
        }
      ],
      "stateMutability": "view",
      "type": "function"
    },
    {
      "inputs": [
        {
          "internalType": "uint256",
          "name": "listingId",
          "type": "uint256"
        }
      ],
      "name": "placeBid",
      "outputs": [],
      "stateMutability": "payable",
      "type": "function"
    },
    {
      "inputs": [
        {
          "internalType": "string",
          "name": "newMessage",
          "type": "string"
        }
      ],
      "name": "setMessage",
      "outputs": [],
      "stateMutability": "nonpayable",
      "type": "function"
    }
  ],
  "bytecode": "0x60806040523480156200001157600080fd5b50604051620018dc380380620018dc8339818101604052810190620000379190620001e3565b80600090816200004891906200047f565b505062000566565b6000604051905090565b600080fd5b600080fd5b600080fd5b600080fd5b6000601f19601f8301169050919050565b7f4e487b7100000000000000000000000000000000000000000000000000000000600052604160045260246000fd5b620000b9826200006e565b810181811067ffffffffffffffff82111715620000db57620000da6200007f565b5b80604052505050565b6000620000f062000050565b9050620000fe8282620000ae565b919050565b600067ffffffffffffffff8211156200012157620001206200007f565b5b6200012c826200006e565b9050602081019050919050565b60005b83811015620001595780820151818401526020810190506200013c565b60008484015250505050565b60006200017c620001768462000103565b620000e4565b9050828152602081018484840111156200019b576200019a62000069565b5b620001a884828562000139565b509392505050565b600082601f830112620001c857620001c762000064565b5b8151620001da84826020860162000165565b91505092915050565b600060208284031215620001fc57620001fb6200005a565b5b600082015167ffffffffffffffff8111156200021d576200021c6200005f565b5b6200022b84828501620001b0565b91505092915050565b600081519050919050565b7f4e487b7100000000000000000000000000000000000000000000000000000000600052602260045260246000fd5b600060028204905060018216806200028757607f821691505b6020821081036200029d576200029c6200023f565b5b50919050565b60008190508160005260206000209050919050565b60006020601f8301049050919050565b600082821b905092915050565b600060088302620003077fffffffffffffffffffffffffffffffffffffffffffffffffffffffffffffffff82620002c8565b620003138683620002c8565b95508019841693508086168417925050509392505050565b6000819050919050565b6000819050919050565b6000620003606200035a62000354846200032b565b62000335565b6200032b565b9050919050565b6000819050919050565b6200037c836200033f565b620003946200038b8262000367565b848454620002d5565b825550505050565b600090565b620003ab6200039c565b620003b881848462000371565b505050565b5b81811015620003e057620003d4600082620003a1565b600181019050620003be565b5050565b601f8211156200042f57620003f981620002a3565b6200040484620002b8565b8101602085101562000414578190505b6200042c6200042385620002b8565b830182620003bd565b50505b505050565b600082821c905092915050565b6000620004546000198460080262000434565b1980831691505092915050565b60006200046f838362000441565b9150826002028217905092915050565b6200048a8262000234565b67ffffffffffffffff811115620004a657620004a56200007f565b5b620004b282546200026e565b620004bf828285620003e4565b600060209050601f831160018114620004f75760008415620004e2578287015190505b620004ee858262000461565b8655506200055e565b601f1984166200050786620002a3565b60005b8281101562000531578489015182556001820191506020850194506020810190506200050a565b868310156200055157848901516200054d601f89168262000441565b8355505b6001600288020188555050505b505050505050565b61136680620005766000396000f3fe6080604052600436106100705760003560e01c80639bae1bb31161004e5780639bae1bb3146100e3578063aaccf1ec1461010c578063de74e57b14610137578063e21f37ce1461017957610070565b8063368b87721461007557806361245a381461009e5780639979ef45146100c7575b600080fd5b34801561008157600080fd5b5061009c60048036038101906100979190610987565b6101a4565b005b3480156100aa57600080fd5b506100c560048036038101906100c09190610b15565b6101ba565b005b6100e160048036038101906100dc9190610b94565b610325565b005b3480156100ef57600080fd5b5061010a60048036038101906101059190610b94565b61053b565b005b34801561011857600080fd5b50610121610769565b60405161012e9190610bd0565b60405180910390f35b34801561014357600080fd5b5061015e60048036038101906101599190610b94565b61076f565b60405161017096959493929190610cc6565b60405180910390f35b34801561018557600080fd5b5061018e610880565b60405161019b9190610d2e565b60405180910390f35b8181600091826101b5929190610f67565b505050565b6040518060c0016040528060025481526020013373ffffffffffffffffffffffffffffffffffffffff16815260200182815260200160008152602001600073ffffffffffffffffffffffffffffffffffffffff168152602001600015158152506001600060025481526020019081526020016000206000820151816000015560208201518160010160006101000a81548173ffffffffffffffffffffffffffffffffffffffff021916908373ffffffffffffffffffffffffffffffffffffffff16021790555060408201518160020190816102959190611037565b506060820151816003015560808201518160040160006101000a81548173ffffffffffffffffffffffffffffffffffffffff021916908373ffffffffffffffffffffffffffffffffffffffff16021790555060a08201518160040160146101000a81548160ff0219169083151502179055509050506002600081548092919061031d90611138565b919050555050565b60006001600083815260200190815260200160002090508060040160149054906101000a900460ff161561038e576040517f08c379a0000000000000000000000000000000000000000000000000000000008152600401610385906111cc565b60405180910390fd5b806003015434116103d4576040517f08c379a00000000000000000000000000000000000000000000000000000000081526004016103cb90611238565b60405180910390fd5b600073ffffffffffffffffffffffffffffffffffffffff168160040160009054906101000a900473ffffffffffffffffffffffffffffffffffffffff1673ffffffffffffffffffffffffffffffffffffffff161461049c578060040160009054906101000a900473ffffffffffffffffffffffffffffffffffffffff1673ffffffffffffffffffffffffffffffffffffffff166108fc82600301549081150290604051600060405180830381858888f1935050505015801561049a573d6000803e3d6000fd5b505b348160030181905550338160040160006101000a81548173ffffffffffffffffffffffffffffffffffffffff021916908373ffffffffffffffffffffffffffffffffffffffff1602179055503373ffffffffffffffffffffffffffffffffffffffff16827f0e54eff26401bf69b81b26f60bd85ef47f5d85275c1d268d84f68d6897431c473460405161052f9190610bd0565b60405180910390a35050565b60006001600083815260200190815260200160002090508060010160009054906101000a900473ffffffffffffffffffffffffffffffffffffffff1673ffffffffffffffffffffffffffffffffffffffff163373ffffffffffffffffffffffffffffffffffffffff16146105e4576040517f08c379a00000000000000000000000000000000000000000000000000000000081526004016105db906112a4565b60405180910390fd5b8060040160149054906101000a900460ff1615610636576040517f08c379a000000000000000000000000000000000000000000000000000000000815260040161062d90611310565b60405180910390fd5b60018160040160146101000a81548160ff0219169083151502179055508060010160009054906101000a900473ffffffffffffffffffffffffffffffffffffffff1673ffffffffffffffffffffffffffffffffffffffff166108fc82600301549081150290604051600060405180830381858888f193505050501580156106c1573d6000803e3d6000fd5b508060040160009054906101000a900473ffffffffffffffffffffffffffffffffffffffff1673ffffffffffffffffffffffffffffffffffffffff168160010160009054906101000a900473ffffffffffffffffffffffffffffffffffffffff1673ffffffffffffffffffffffffffffffffffffffff16837f80fc28e6032808d34a0b466b895a33f5db24ee71c32b88bfa6f24b3252f6707660405160405180910390a45050565b60025481565b60016020528060005260406000206000915090508060000154908060010160009054906101000a900473ffffffffffffffffffffffffffffffffffffffff16908060020180546107be90610d8a565b80601f01602080910402602001604051908101604052809291908181526020018280546107ea90610d8a565b80156108375780601f1061080c57610100808354040283529160200191610837565b820191906000526020600020905b81548152906001019060200180831161081a57829003601f168201915b5050505050908060030154908060040160009054906101000a900473ffffffffffffffffffffffffffffffffffffffff16908060040160149054906101000a900460ff16905086565b6000805461088d90610d8a565b80601f01602080910402602001604051908101604052809291908181526020018280546108b990610d8a565b80156109065780601f106108db57610100808354040283529160200191610906565b820191906000526020600020905b8154815290600101906020018083116108e957829003601f168201915b505050505081565b6000604051905090565b600080fd5b600080fd5b600080fd5b600080fd5b600080fd5b60008083601f84011261094757610946610922565b5b8235905067ffffffffffffffff81111561096457610963610927565b5b6020830191508360018202830111156109805761097f61092c565b5b9250929050565b6000806020838503121561099e5761099d610918565b5b600083013567ffffffffffffffff8111156109bc576109bb61091d565b5b6109c885828601610931565b92509250509250929050565b600080fd5b6000601f19601f8301169050919050565b7f4e487b7100000000000000000000000000000000000000000000000000000000600052604160045260246000fd5b610a22826109d9565b810181811067ffffffffffffffff82111715610a4157610a406109ea565b5b80604052505050565b6000610a5461090e565b9050610a608282610a19565b919050565b600067ffffffffffffffff821115610a8057610a7f6109ea565b5b610a89826109d9565b9050602081019050919050565b82818337600083830152505050565b6000610ab8610ab384610a65565b610a4a565b905082815260208101848484011115610ad457610ad36109d4565b5b610adf848285610a96565b509392505050565b600082601f830112610afc57610afb610922565b5b8135610b0c848260208601610aa5565b91505092915050565b600060208284031215610b2b57610b2a610918565b5b600082013567ffffffffffffffff811115610b4957610b4861091d565b5b610b5584828501610ae7565b91505092915050565b6000819050919050565b610b7181610b5e565b8114610b7c57600080fd5b50565b600081359050610b8e81610b68565b92915050565b600060208284031215610baa57610ba9610918565b5b6000610bb884828501610b7f565b91505092915050565b610bca81610b5e565b82525050565b6000602082019050610be56000830184610bc1565b92915050565b600073ffffffffffffffffffffffffffffffffffffffff82169050919050565b6000610c1682610beb565b9050919050565b610c2681610c0b565b82525050565b600081519050919050565b600082825260208201905092915050565b60005b83811015610c66578082015181840152602081019050610c4b565b60008484015250505050565b6000610c7d82610c2c565b610c878185610c37565b9350610c97818560208601610c48565b610ca0816109d9565b840191505092915050565b60008115159050919050565b610cc081610cab565b82525050565b600060c082019050610cdb6000830189610bc1565b610ce86020830188610c1d565b8181036040830152610cfa8187610c72565b9050610d096060830186610bc1565b610d166080830185610c1d565b610d2360a0830184610cb7565b979650505050505050565b60006020820190508181036000830152610d488184610c72565b905092915050565b600082905092915050565b7f4e487b7100000000000000000000000000000000000000000000000000000000600052602260045260246000fd5b60006002820490506001821680610da257607f821691505b602082108103610db557610db4610d5b565b5b50919050565b60008190508160005260206000209050919050565b60006020601f8301049050919050565b600082821b905092915050565b600060088302610e1d7fffffffffffffffffffffffffffffffffffffffffffffffffffffffffffffffff82610de0565b610e278683610de0565b95508019841693508086168417925050509392505050565b6000819050919050565b6000610e64610e5f610e5a84610b5e565b610e3f565b610b5e565b9050919050565b6000819050919050565b610e7e83610e49565b610e92610e8a82610e6b565b848454610ded565b825550505050565b600090565b610ea7610e9a565b610eb2818484610e75565b505050565b5b81811015610ed657610ecb600082610e9f565b600181019050610eb8565b5050565b601f821115610f1b57610eec81610dbb565b610ef584610dd0565b81016020851015610f04578190505b610f18610f1085610dd0565b830182610eb7565b50505b505050565b600082821c905092915050565b6000610f3e60001984600802610f20565b1980831691505092915050565b6000610f578383610f2d565b9150826002028217905092915050565b610f718383610d50565b67ffffffffffffffff811115610f8a57610f896109ea565b5b610f948254610d8a565b610f9f828285610eda565b6000601f831160018114610fce5760008415610fbc578287013590505b610fc68582610f4b565b86555061102e565b601f198416610fdc86610dbb565b60005b8281101561100457848901358255600182019150602085019450602081019050610fdf565b86831015611021578489013561101d601f891682610f2d565b8355505b6001600288020188555050505b50505050505050565b61104082610c2c565b67ffffffffffffffff811115611059576110586109ea565b5b6110638254610d8a565b61106e828285610eda565b600060209050601f8311600181146110a1576000841561108f578287015190505b6110998582610f4b565b865550611101565b601f1984166110af86610dbb565b60005b828110156110d7578489015182556001820191506020850194506020810190506110b2565b868310156110f457848901516110f0601f891682610f2d565b8355505b6001600288020188555050505b505050505050565b7f4e487b7100000000000000000000000000000000000000000000000000000000600052601160045260246000fd5b600061114382610b5e565b91507fffffffffffffffffffffffffffffffffffffffffffffffffffffffffffffffff820361117557611174611109565b5b600182019050919050565b7f4c697374696e672066756c66696c6c6564000000000000000000000000000000600082015250565b60006111b6601183610c37565b91506111c182611180565b602082019050919050565b600060208201905081810360008301526111e5816111a9565b9050919050565b7f42696420746f6f206c6f77000000000000000000000000000000000000000000600082015250565b6000611222600b83610c37565b915061122d826111ec565b602082019050919050565b6000602082019050818103600083015261125181611215565b9050919050565b7f4f6e6c792073656c6c65722063616e2066696e616c697a650000000000000000600082015250565b600061128e601883610c37565b915061129982611258565b602082019050919050565b600060208201905081810360008301526112bd81611281565b9050919050565b7f416c72656164792066756c66696c6c6564000000000000000000000000000000600082015250565b60006112fa601183610c37565b9150611305826112c4565b602082019050919050565b60006020820190508181036000830152611329816112ed565b905091905056fea26469706673582212206e2b75b0bab054d6b66fa79c4cc017bce499db0542e7b0f20dcb06282c781c2564736f6c63430008140033",
  "linkReferences": {},
  "deployedLinkReferences": {}
}